:100000000C9434000C9451000C9451000C94510049
:100010000C9451000C9451000C9451000C9451001C
:100020000C9451000C9451000C9451000C947500E8
:100030000C9451000C9451000C9451000C945100FC
:100040000C9451000C9451000C9451000C945100EC
:100050000C9451000C9451000C9451000C945100DC
:100060000C9451000C94510011241FBECFEFD8E026
:10007000DEBFCDBF11E0A0E0B1E0E6E5F2E002C0F6
:1000800005900D92A031B107D9F721E0A0E1B1E0D0
:1000900001C01D92A531B207E1F70E94BF000C9488
:1000A00029010C94000087E680937C0087E8809308
:1000B0007A000895EAE7F0E080818064808380918F
:1000C0007A0086FDFCCF809179000895109280001F
:1000D0008DE0809381008CE990E09093890080937B
:1000E000880082E080936F0008951F920F920FB6F0
:1000F0000F9211242F933F938F939F93EF93FF932E
:10010000E0911001F0E0ED5EFE4FE081F0E0E050A4
:10011000FF4F808195B1282F217030E0220F331FCF
:1001200022953295307F3227207F32279F71292BED
:1001300025B986958F7388B980911001811107C008
:1001400085B1846085B985B1877F85B906C085B1E1
:10015000886085B985B18B7F85B99091100181E068
:10016000911180E080931001FF91EF919F918F9109
:100170003F912F910F900FBE0F901F9018958FEF0A
:100180008AB984B18C6384B987B18F6387B985B12B
:10019000836085B90E9453000E946600789451E004
:1001A00041E002C04D2F5C2F83B191E0382F3170B8
:1001B00080FD90E0D92F83B1827090E021E000971C
:1001C00009F020E0C22F311112C0411110C02FEFF1
:1001D00039EF40E0215030404040E1F700C00000DE
:1001E000189905C0209112012F5F20931201892BCD
:1001F00091F4511110C08FEF99EF20E081509040A1
:100200002040E1F700C00000199905C0809112015B
:10021000815080931201809112018BB90E945A0083
:10022000809311018091110182958F70E3E1F1E0DB
:100230008083809111018F70818380911101893CAD
:1002400020F085B1806185B9ADCF85B18F7E85B94C
:06025000A9CFF894FFCFD6
:10025600C0F9A4B0999282F880908883C6A1868E50
:00000001FF
