S01800005072654C61626F7261746F72696F5F342E73726563D4
S11300000C9434000C9446000C9446000C94460066
S11300100C9446000C9446000C9446000C94460044
S11300200C9446000C9446000C9446000C94460034
S11300300C9446000C9446000C9446000C94460024
S11300400C9446000C9446000C9446000C94460014
S11300500C9446000C9446000C9446000C94460004
S11300600C9446000C94460011241FBECFEFD8E038
S1130070DEBFCDBF21E0A0E0B1E001C01D92A13000
S1130080B207E1F70E9455000C9495000C9400000F
S11300908FEF8AB984B18C7F84B985B1836085B9C7
S11300A00895809100018BB908950E94480051E0A1
S11300B041E093B181E0392F317090FD80E0D82F79
S11300C083B1827090E021E0009709F020E0C22F14
S11300D0311112C0411110C02FEF39EF40E021500F
S11300E030404040E1F700C00000189905C020915D
S11300F000012F5F20930001892B91F4511110C04E
S11301008FEF99EF20E0815090402040E1F700C04C
S11301100000199905C0809100018150809300016D
S11101200E9451004D2F5C2FC4CFF894FFCFE6
S9030000FC
